:100000000EC016C014C026C012C011C010C00FC050
:100010000EC00DC00CC00BC00AC009C008C011241E
:100020001FBECFE5D2E0DEBFCDBF26D03EC0E8CFB9
:100030001F920F920FB60F9211248F939F9398B334
:1000400080E1892788BB9F918F910F900FBE0F9001
:100050001F9018951F920F920FB60F9211248F9335
:100060009F9398B380E1892788BB9F918F910F90D0
:100070000FBE0F901F901895BC9A85B7826085BF00
:100080008BB780648BBFBA98C29A80B78E6880BFE6
:100090008AE78DBD89B7806489BF789487EA91E645
:0E00A0000197F1F700C00000F9CFF894FFCFF0
:00000001FF
