:1000000032C042C040C056C03EC03DC03CC03BC0F4
:100010003AC039C038C037C036C035C034C014808B
:10002000001B80001880001680401640001640001B
:100030001E80001B80001E80001B80401B40001B98
:1000400040001E8000148000168000188040184078
:10005000001840001E80001B8000188000168040A1
:1000600016400016400011241FBECFE5D2E0DEBFCF
:10007000CDBF20E0A0E6B0E001C01D92A236B207DD
:10008000E1F734D097C0BCCF1F920F920FB60F92FA
:1000900011248F9380916100811101C01FBC809158
:1000A00061008F5F809361008F910F900FBE0F9062
:1000B0001F9018951F920F920FB60F9211248F93D5
:1000C00080916000882319F08150809360008091B6
:1000D00061008B3018F085E0809360001092610021
:1000E0008F910F900FBE0F901F901895BC9A85B7F7
:1000F000826085BF8BB780648BBFBA98C29A80B785
:100100008E6880BF8AE78DBD89B7806489BF1FBCB8
:100110008AB582608ABD83E083BFB89A109261007D
:10012000789460E180916000882309F441C0C49A0A
:100130008EE190E0FC013491319624913196E49166
:100140004AB540644ABD39BD30E040E050E0421756
:10015000530748F4A4E4B1E01197F1F700C00000A0
:100160004F5F5F4FF4CF2AB52F7B2ABDF0E020E030
:1001700030E02E173F0748F4A4E4B1E01197F1F7FF
:1001800000C000002F5F3F4FF4CF28B3262728BBC5
:100190000396B0E086369B0769F6C498EFE9F6E867
:1001A00021E0E150F0402040E1F700C00000BACF6C
:0801B000C498B8CFF894FFCF0A
:00000001FF
