:200000000EC01DC01CC01BC01AC01AC018C017C016C015C014C013C012C011C010C0112421
:200020001FBECFE5D2E0DEBFCDBF20E0A0E6B0E001C01D92A936B207E1F74CD07AC0E0CF59
:200040001F920F920FB60F9211242F933F938F939F93AF93BF938091650090916600A09109
:200060006700B09168003091640026E0230F2D3720F40296A11DB11D05C029E8230F0396D6
:20008000A11DB11D209364008093650090936600A0936700B0936800809160009091610084
:2000A000A0916200B09163000196A11DB11D8093600090936100A0936200B0936300BF9164
:2000C000AF919F918F913F912F910F900FBE0F901F90189578948AB582608ABD8AB5816005
:2000E0008ABD83B7826083BF83B7816083BF89B7826089BF80B7826080BF80B7816080BFE5
:20010000329A319A3098379ABC9AC0E100E010E02FEF89E698E1215080409040E1F700C049
:16012000000088B38C2788BB0115110589F368DFEFCFF894FFCF91
:00000001FF
